{
  "_format": "hh-sol-artifact-1",
  "contractName": "Inventory",
  "sourceName": "contracts/Inventory.sol",
  "abi": [
    {
      "anonymous": false,
      "inputs": [
        {
          "indexed": false,
          "internalType": "uint256",
          "name": "productId",
          "type": "uint256"
        },
        {
          "indexed": false,
          "internalType": "string",
          "name": "name",
          "type": "string"
        },
        {
          "indexed": false,
          "internalType": "string",
          "name": "description",
          "type": "string"
        },
        {
          "indexed": false,
          "internalType": "uint256",
          "name": "quantity",
          "type": "uint256"
        }
      ],
      "name": "ProductAdded",
      "type": "event"
    },
    {
      "anonymous": false,
      "inputs": [
        {
          "indexed": false,
          "internalType": "uint256",
          "name": "productId",
          "type": "uint256"
        },
        {
          "indexed": false,
          "internalType": "uint256",
          "name": "newQuantity",
          "type": "uint256"
        }
      ],
      "name": "ProductUpdated",
      "type": "event"
    },
    {
      "inputs": [
        {
          "internalType": "string",
          "name": "_name",
          "type": "string"
        },
        {
          "internalType": "string",
          "name": "_description",
          "type": "string"
        },
        {
          "internalType": "uint256",
          "name": "_initialQuantity",
          "type": "uint256"
        }
      ],
      "name": "addProduct",
      "outputs": [],
      "stateMutability": "nonpayable",
      "type": "function"
    },
    {
      "inputs": [
        {
          "internalType": "uint256",
          "name": "_productId",
          "type": "uint256"
        },
        {
          "internalType": "uint256",
          "name": "_requiredQuantity",
          "type": "uint256"
        }
      ],
      "name": "checkAvailability",
      "outputs": [
        {
          "internalType": "bool",
          "name": "",
          "type": "bool"
        }
      ],
      "stateMutability": "view",
      "type": "function"
    },
    {
      "inputs": [
        {
          "internalType": "uint256",
          "name": "_productId",
          "type": "uint256"
        },
        {
          "internalType": "uint256",
          "name": "_amount",
          "type": "uint256"
        }
      ],
      "name": "decreaseInventory",
      "outputs": [],
      "stateMutability": "nonpayable",
      "type": "function"
    },
    {
      "inputs": [
        {
          "internalType": "uint256",
          "name": "_productId",
          "type": "uint256"
        }
      ],
      "name": "getProduct",
      "outputs": [
        {
          "internalType": "string",
          "name": "",
          "type": "string"
        },
        {
          "internalType": "string",
          "name": "",
          "type": "string"
        },
        {
          "internalType": "uint256",
          "name": "",
          "type": "uint256"
        }
      ],
      "stateMutability": "view",
      "type": "function"
    },
    {
      "inputs": [],
      "name": "productCount",
      "outputs": [
        {
          "internalType": "uint256",
          "name": "",
          "type": "uint256"
        }
      ],
      "stateMutability": "view",
      "type": "function"
    },
    {
      "inputs": [
        {
          "internalType": "uint256",
          "name": "",
          "type": "uint256"
        }
      ],
      "name": "products",
      "outputs": [
        {
          "internalType": "string",
          "name": "name",
          "type": "string"
        },
        {
          "internalType": "string",
          "name": "description",
          "type": "string"
        },
        {
          "internalType": "uint256",
          "name": "quantity",
          "type": "uint256"
        }
      ],
      "stateMutability": "view",
      "type": "function"
    },
    {
      "inputs": [
        {
          "internalType": "uint256",
          "name": "_productId",
          "type": "uint256"
        },
        {
          "internalType": "uint256",
          "name": "_newQuantity",
          "type": "uint256"
        }
      ],
      "name": "updateProductQuantity",
      "outputs": [],
      "stateMutability": "nonpayable",
      "type": "function"
    }
  ],
  "bytecode": "0x608080604052346015576108e1908161001b8239f35b600080fdfe6080604052600436101561001257600080fd5b60003560e01c8063355e710d1461058d5780636de482c8146105445780637acc0b20146104fa578063b9db15b414610471578063e0f6ef8714610453578063f28ea1c1146100dc5763fcc93b0b1461006957600080fd5b346100d7577f1a58b4c176a67828ebe2456bc637af85e69b115be11597e049b0669d13bea999604061009a36610672565b811515806100cb575b6100ac9061086a565b81600052600060205280600284600020015582519182526020820152a1005b506001548211156100a3565b600080fd5b346100d75760603660031901126100d75760043567ffffffffffffffff81116100d75761010d903690600401610813565b60243567ffffffffffffffff81116100d75761012d903690600401610813565b9060443591600154600019811461043d576001019283600155604051610152816106c2565b8381526020810194838652604082019083825260005260006020526040600020915180519067ffffffffffffffff82116103645781906101928554610688565b601f81116103ea575b50602090601f83116001146103855760009261037a575b50508160011b916000199060031b1c19161782555b60018201955195865167ffffffffffffffff8111610364576101e98254610688565b601f811161031c575b506020601f821160011461029157908060029493927f7a092309290915a35151881d9282456b222c739a7d845acd25a6c13b75d62f139a600092610286575b50508160011b916000199060031b1c19161790555b5191015561027b6001549261026d60405195869586526080602087015260808601906107a4565b9084820360408601526107a4565b9060608301520390a1005b015190508a80610231565b601f1982169883600052816000209960005b818110610304575099600192849260029796957f7a092309290915a35151881d9282456b222c739a7d845acd25a6c13b75d62f139d106102eb575b505050811b019055610246565b015160001960f88460031b161c191690558a80806102de565b838301518c556001909b019a602093840193016102a3565b826000526020600020601f830160051c8101916020841061035a575b601f0160051c01905b81811061034e57506101f2565b60008155600101610341565b9091508190610338565b634e487b7160e01b600052604160045260246000fd5b0151905088806101b2565b60008681528281209350601f198516905b8181106103d257509084600195949392106103b9575b505050811b0182556101c7565b015160001960f88460031b161c191690558880806103ac565b92936020600181928786015181550195019301610396565b909150846000526020600020601f840160051c81019160208510610433575b90601f859493920160051c01905b818110610424575061019b565b60008155849350600101610417565b9091508190610409565b634e487b7160e01b600052601160045260246000fd5b346100d75760003660031901126100d7576020600154604051908152f35b346100d75760203660031901126100d757600435801515806104ee575b6104979061086a565b600052600060205260406000206040516104b0816106c2565b6104b982610700565b81526104ea60026104cc60018501610700565b938460208501520154918260408201525191604051938493846107e5565b0390f35b5060015481111561048e565b346100d75760203660031901126100d7576004356000526000602052604060002061052481610700565b6104ea600261053560018501610700565b930154604051938493846107e5565b346100d757602061055436610672565b9080151580610581575b6105679061086a565b600052600082526002604060002001541015604051908152f35b5060015481111561055e565b346100d75761059b36610672565b9080151580610666575b6105ae9061086a565b806000526000602052816002604060002001541061062857806000526000602052600260406000200190815492830392831161043d577f1a58b4c176a67828ebe2456bc637af85e69b115be11597e049b0669d13bea9999260409255806000526000602052600282600020015482519182526020820152a1005b60405162461bcd60e51b8152602060048201526016602482015275496e73756666696369656e7420696e76656e746f727960501b6044820152606490fd5b506001548111156105a5565b60409060031901126100d7576004359060243590565b90600182811c921680156106b8575b60208310146106a257565b634e487b7160e01b600052602260045260246000fd5b91607f1691610697565b6060810190811067ffffffffffffffff82111761036457604052565b90601f8019910116810190811067ffffffffffffffff82111761036457604052565b906040519182600082549261071484610688565b8084529360018116908115610782575060011461073b575b50610739925003836106de565b565b90506000929192526020600020906000915b818310610766575050906020610739928201013861072c565b602091935080600191548385890101520191019091849261074d565b90506020925061073994915060ff191682840152151560051b8201013861072c565b919082519283825260005b8481106107d0575050826000602080949584010152601f8019910116010190565b806020809284010151828286010152016107af565b93929161080e906108006040936060885260608801906107a4565b9086820360208801526107a4565b930152565b81601f820112156100d75780359067ffffffffffffffff82116103645760405192610848601f8401601f1916602001856106de565b828452602083830101116100d757816000926020809301838601378301015290565b1561087157565b60405162461bcd60e51b8152602060048201526012602482015271125b9d985b1a59081c1c9bd91d58dd08125160721b6044820152606490fdfea264697066735822122078e67c564c9045a819f170aee4fc457b4c779c3f4d89800f6354b25c2d72d92f64736f6c634300081c0033",
  "linkReferences": {},
  "deployedLinkReferences": {}
}