{
  "_format": "hh-sol-artifact-1",
  "contractName": "ShipmentPart",
  "sourceName": "contracts/Shipment.sol",
  "abi": [
    {
      "inputs": [
        {
          "internalType": "address",
          "name": "_inventoryAddress",
          "type": "address"
        }
      ],
      "stateMutability": "nonpayable",
      "type": "constructor"
    },
    {
      "anonymous": false,
      "inputs": [
        {
          "indexed": false,
          "internalType": "uint256",
          "name": "shipmentId",
          "type": "uint256"
        },
        {
          "indexed": false,
          "internalType": "address",
          "name": "sender",
          "type": "address"
        },
        {
          "indexed": false,
          "internalType": "address",
          "name": "receiver",
          "type": "address"
        }
      ],
      "name": "ShipmentCreated",
      "type": "event"
    },
    {
      "anonymous": false,
      "inputs": [
        {
          "indexed": false,
          "internalType": "uint256",
          "name": "shipmentId",
          "type": "uint256"
        },
        {
          "indexed": false,
          "internalType": "enum ShipmentPart.ShipmentStatus",
          "name": "newStatus",
          "type": "uint8"
        }
      ],
      "name": "ShipmentStatusUpdated",
      "type": "event"
    },
    {
      "inputs": [
        {
          "internalType": "address",
          "name": "_receiver",
          "type": "address"
        },
        {
          "internalType": "uint256[]",
          "name": "_productIds",
          "type": "uint256[]"
        },
        {
          "internalType": "uint256[]",
          "name": "_quantities",
          "type": "uint256[]"
        }
      ],
      "name": "createShipment",
      "outputs": [],
      "stateMutability": "nonpayable",
      "type": "function"
    },
    {
      "inputs": [
        {
          "internalType": "uint256",
          "name": "_shipmentId",
          "type": "uint256"
        }
      ],
      "name": "getShipment",
      "outputs": [
        {
          "internalType": "uint256",
          "name": "",
          "type": "uint256"
        },
        {
          "internalType": "address",
          "name": "",
          "type": "address"
        },
        {
          "internalType": "address",
          "name": "",
          "type": "address"
        },
        {
          "internalType": "enum ShipmentPart.ShipmentStatus",
          "name": "",
          "type": "uint8"
        },
        {
          "internalType": "uint256",
          "name": "",
          "type": "uint256"
        },
        {
          "internalType": "uint256",
          "name": "",
          "type": "uint256"
        },
        {
          "components": [
            {
              "internalType": "uint256",
              "name": "productId",
              "type": "uint256"
            },
            {
              "internalType": "uint256",
              "name": "quantity",
              "type": "uint256"
            }
          ],
          "internalType": "struct ShipmentPart.ShipmentItem[]",
          "name": "",
          "type": "tuple[]"
        }
      ],
      "stateMutability": "view",
      "type": "function"
    },
    {
      "inputs": [
        {
          "internalType": "uint256",
          "name": "_shipmentId",
          "type": "uint256"
        }
      ],
      "name": "getShipmentStatus",
      "outputs": [
        {
          "internalType": "string",
          "name": "",
          "type": "string"
        }
      ],
      "stateMutability": "view",
      "type": "function"
    },
    {
      "inputs": [],
      "name": "inventory",
      "outputs": [
        {
          "internalType": "contract Inventory",
          "name": "",
          "type": "address"
        }
      ],
      "stateMutability": "view",
      "type": "function"
    },
    {
      "inputs": [],
      "name": "shipmentCount",
      "outputs": [
        {
          "internalType": "uint256",
          "name": "",
          "type": "uint256"
        }
      ],
      "stateMutability": "view",
      "type": "function"
    },
    {
      "inputs": [
        {
          "internalType": "uint256",
          "name": "",
          "type": "uint256"
        }
      ],
      "name": "shipments",
      "outputs": [
        {
          "internalType": "uint256",
          "name": "shipmentId",
          "type": "uint256"
        },
        {
          "internalType": "address",
          "name": "sender",
          "type": "address"
        },
        {
          "internalType": "address",
          "name": "receiver",
          "type": "address"
        },
        {
          "internalType": "enum ShipmentPart.ShipmentStatus",
          "name": "status",
          "type": "uint8"
        },
        {
          "internalType": "uint256",
          "name": "creationTime",
          "type": "uint256"
        },
        {
          "internalType": "uint256",
          "name": "deliveryTime",
          "type": "uint256"
        }
      ],
      "stateMutability": "view",
      "type": "function"
    },
    {
      "inputs": [
        {
          "internalType": "uint256",
          "name": "_shipmentId",
          "type": "uint256"
        },
        {
          "internalType": "enum ShipmentPart.ShipmentStatus",
          "name": "_newStatus",
          "type": "uint8"
        }
      ],
      "name": "updateShipmentStatus",
      "outputs": [],
      "stateMutability": "nonpayable",
      "type": "function"
    }
  ],
  "bytecode": "0x608034607057601f610afa38819003918201601f19168301916001600160401b03831184841017607557808492602094604052833981010312607057516001600160a01b03811690819003607057600080546001600160a01b031916919091179055604051610a6e908161008c8239f35b600080fd5b634e487b7160e01b600052604160045260246000fdfe6080604052600436101561001257600080fd5b60003560e01c8063092b37401461068057806315d52a5c146106575780632ac08a93146105d957806347fdb678146102725780637defa920146100f7578063aace20b7146100d95763ee21259d1461006957600080fd5b346100d45760203660031901126100d457610085600435610948565b60405190602082528181519182602083015260005b8381106100bc5750508160006040809484010152601f80199101168101030190f35b6020828201810151604087840101528593500161009a565b600080fd5b346100d45760003660031901126100d4576020600254604051908152f35b346100d45760403660031901126100d457600435602435600381109182156100d45780151580610266575b61012b906108a6565b806000526001602052604060002060018060a01b0360018201541633148015610250575b1561021c57600183036101de5760ff6004820154169060038210156101c85761017a600492156108fc565b0192156101c8576101c56040927f8e16b4336dc88d11f2b19383604580b7fc6349df052bc9232d52ce1a40df6c4d9460ff1981541660ff8316179055835192835260208301906107e6565ba1005b634e487b7160e01b600052602160045260246000fd5b600283146101ef575b60049061017a565b60ff6004820154169060038210156101c85761020f6001600493146108fc565b42600682015590506101e7565b60405162461bcd60e51b815260206004820152600c60248201526b155b985d5d1a1bdc9a5e995960a21b6044820152606490fd5b5060028101546001600160a01b0316331461014f565b50600254811115610122565b346100d45760603660031901126100d4576004356001600160a01b038116908190036100d45760243567ffffffffffffffff81116100d4576102b8903690600401610849565b9060443567ffffffffffffffff81116100d4576102d9903690600401610849565b82518151036105a057600080546001600160a01b0316919084905b81518110156103dc5761030781836108e8565b5161031282856108e8565b5160405191630dbc905960e31b835260048301526024820152602081604481885afa9081156103d05760009161038f575b5015610351576001016102f4565b60405162461bcd60e51b8152602060048201526016602482015275496e73756666696369656e7420696e76656e746f727960501b6044820152606490fd5b6020813d82116103c8575b816103a76020938361080f565b810103126103c457519081151582036103c1575086610343565b80fd5b5080fd5b3d915061039a565b6040513d6000823e3d90fd5b508382600254600019811461058a5760019081016002818155600082815260208490526040812092835592820180546001600160a01b0319908116331790915590820180549091168517905560048101805460ff19169055426005820155600301905b845181101561054e5761045281866108e8565b5161045d82856108e8565b516040519161046b836107f3565b8252602082019081528354906801000000000000000082101561053857600182018086558210156105225760019185600052602060002090831b01925183555191015560018060a01b0360005416906104c481876108e8565b516104cf82866108e8565b51833b156100d457604460009283604051968794859363355e710d60e01b8552600485015260248401525af19182156103d057600192610511575b500161043f565b600061051c9161080f565b8661050a565b634e487b7160e01b600052603260045260246000fd5b634e487b7160e01b600052604160045260246000fd5b7ffe0fd664b79935c18377297309c92f6abe60ccaa6d43bd30327c508c7fda080e606085600254906040519182523360208301526040820152a1005b634e487b7160e01b600052601160045260246000fd5b60405162461bcd60e51b81526020600482015260116024820152704d69736d6174636865642061727261797360781b6044820152606490fd5b346100d45760203660031901126100d457600435600052600160205260c0604060002080549060018060a01b036001820154169061064b60018060a01b0360028301541660ff6004840154169060066005850154940154946040519687526020870152604086015260608501906107e6565b608083015260a0820152f35b346100d45760003660031901126100d4576000546040516001600160a01b039091168152602090f35b346100d45760203660031901126100d457600435801515806107da575b6106a6906108a6565b6000526001602052604060002080549060018060a01b036001820154169060018060a01b036002820154169260ff600483015416600583015492600360068201549101938454926106f684610831565b93610704604051958661080f565b80855260208501809760005260206000206000915b83831061079b57505050506107499060405198899860e08a01978a5260208a0152604089015260608801906107e6565b608086015260a085015260e060c0850152518091526101008301919060005b818110610776575050500390f35b8251805185526020908101518186015286955060409094019390920191600101610768565b6002602060019260409e9798999a9b9c9d9e516107b7816107f3565b8554815284860154838201528152019201920191909a999897969594939a610719565b5060025481111561069d565b9060038210156101c85752565b6040810190811067ffffffffffffffff82111761053857604052565b90601f8019910116810190811067ffffffffffffffff82111761053857604052565b67ffffffffffffffff81116105385760051b60200190565b9080601f830112156100d457813561086081610831565b9261086e604051948561080f565b81845260208085019260051b8201019283116100d457602001905b8282106108965750505090565b8135815260209182019101610889565b156108ad57565b60405162461bcd60e51b8152602060048201526013602482015272125b9d985b1a59081cda1a5c1b595b9d081251606a1b6044820152606490fd5b80518210156105225760209160051b010190565b1561090357565b60405162461bcd60e51b815260206004820152601960248201527f496e76616c696420737461747573207472616e736974696f6e000000000000006044820152606490fd5b80151580610a2c575b61095a906108a6565b600052600160205260ff6004604060002001541660038110156101c8578015610a0657600090600181146109dd5760029150146109b65760405161099f60408261080f565b60078152662ab735b737bbb760c91b602082015290565b6040516109c460408261080f565b600981526811195b1a5d995c995960ba1b602082015290565b50506040516109ed60408261080f565b6009815268125b951c985b9cda5d60ba1b602082015290565b50604051610a1560408261080f565b600781526650656e64696e6760c81b602082015290565b5060025481111561095156fea2646970667358221220591085d325330ecbfd04365ca44478bc0565ec8ec43f4c1be26b2551bba1c72264736f6c634300081c0033",
  "linkReferences": {},
  "deployedLinkReferences": {}
}