{
    "_format": "hh-sol-artifact-1",
    "contractName": "Tracking",
    "sourceName": "contracts/Tracking.sol",
    "abi": [
        {
            "inputs": [],
            "stateMutability": "nonpayable",
            "type": "constructor"
        },
        {
            "anonymous": false,
            "inputs": [
                {
                    "indexed": true,
                    "internalType": "address",
                    "name": "sender",
                    "type": "address"
                },
                {
                    "indexed": true,
                    "internalType": "address",
                    "name": "receiver",
                    "type": "address"
                },
                {
                    "indexed": false,
                    "internalType": "uint256",
                    "name": "pickupTime",
                    "type": "uint256"
                },
                {
                    "indexed": false,
                    "internalType": "uint256",
                    "name": "distance",
                    "type": "uint256"
                },
                {
                    "indexed": false,
                    "internalType": "uint256",
                    "name": "price",
                    "type": "uint256"
                }
            ],
            "name": "ShipmentCreated",
            "type": "event"
        },
        {
            "anonymous": false,
            "inputs": [
                {
                    "indexed": true,
                    "internalType": "address",
                    "name": "sender",
                    "type": "address"
                },
                {
                    "indexed": true,
                    "internalType": "address",
                    "name": "receiver",
                    "type": "address"
                },
                {
                    "indexed": false,
                    "internalType": "uint256",
                    "name": "deliveryTime",
                    "type": "uint256"
                }
            ],
            "name": "ShipmentDelivered",
            "type": "event"
        },
        {
            "anonymous": false,
            "inputs": [
                {
                    "indexed": true,
                    "internalType": "address",
                    "name": "sender",
                    "type": "address"
                },
                {
                    "indexed": true,
                    "internalType": "address",
                    "name": "receiver",
                    "type": "address"
                },
                {
                    "indexed": false,
                    "internalType": "uint256",
                    "name": "pickupTime",
                    "type": "uint256"
                }
            ],
            "name": "ShipmentInTransit",
            "type": "event"
        },
        {
            "anonymous": false,
            "inputs": [
                {
                    "indexed": true,
                    "internalType": "address",
                    "name": "sender",
                    "type": "address"
                },
                {
                    "indexed": true,
                    "internalType": "address",
                    "name": "receiver",
                    "type": "address"
                },
                {
                    "indexed": false,
                    "internalType": "uint256",
                    "name": "amount",
                    "type": "uint256"
                }
            ],
            "name": "ShipmentPaid",
            "type": "event"
        },
        {
            "inputs": [
                {
                    "internalType": "address",
                    "name": "_sender",
                    "type": "address"
                },
                {
                    "internalType": "address",
                    "name": "_receiver",
                    "type": "address"
                },
                {
                    "internalType": "uint256",
                    "name": "_index",
                    "type": "uint256"
                }
            ],
            "name": "CompleteShipment",
            "outputs": [],
            "stateMutability": "nonpayable",
            "type": "function"
        },
        {
            "inputs": [
                {
                    "internalType": "address",
                    "name": "_receiver",
                    "type": "address"
                },
                {
                    "internalType": "uint256",
                    "name": "_pickupTime",
                    "type": "uint256"
                },
                {
                    "internalType": "uint256",
                    "name": "_distance",
                    "type": "uint256"
                },
                {
                    "internalType": "uint256",
                    "name": "_price",
                    "type": "uint256"
                }
            ],
            "name": "CreateShipment",
            "outputs": [],
            "stateMutability": "payable",
            "type": "function"
        },
        {
            "inputs": [
                {
                    "internalType": "address",
                    "name": "_sender",
                    "type": "address"
                },
                {
                    "internalType": "address",
                    "name": "_receiver",
                    "type": "address"
                },
                {
                    "internalType": "uint256",
                    "name": "_index",
                    "type": "uint256"
                }
            ],
            "name": "StartShipment",
            "outputs": [],
            "stateMutability": "nonpayable",
            "type": "function"
        },
        {
            "inputs": [],
            "name": "getAllTransaction",
            "outputs": [
                {
                    "components": [
                        {
                            "internalType": "address",
                            "name": "sender",
                            "type": "address"
                        },
                        {
                            "internalType": "address",
                            "name": "receiver",
                            "type": "address"
                        },
                        {
                            "internalType": "uint256",
                            "name": "pickupTime",
                            "type": "uint256"
                        },
                        {
                            "internalType": "uint256",
                            "name": "deliveryTime",
                            "type": "uint256"
                        },
                        {
                            "internalType": "uint256",
                            "name": "distance",
                            "type": "uint256"
                        },
                        {
                            "internalType": "uint256",
                            "name": "price",
                            "type": "uint256"
                        },
                        {
                            "internalType": "enum Tracking.ShipmentStatus",
                            "name": "status",
                            "type": "uint8"
                        },
                        {
                            "internalType": "bool",
                            "name": "ispaid",
                            "type": "bool"
                        }
                    ],
                    "internalType": "struct Tracking.TypeShipment[]",
                    "name": "",
                    "type": "tuple[]"
                }
            ],
            "stateMutability": "view",
            "type": "function"
        },
        {
            "inputs": [
                {
                    "internalType": "address",
                    "name": "_sender",
                    "type": "address"
                },
                {
                    "internalType": "uint256",
                    "name": "_index",
                    "type": "uint256"
                }
            ],
            "name": "getShipment",
            "outputs": [
                {
                    "internalType": "address",
                    "name": "",
                    "type": "address"
                },
                {
                    "internalType": "address",
                    "name": "",
                    "type": "address"
                },
                {
                    "internalType": "uint256",
                    "name": "",
                    "type": "uint256"
                },
                {
                    "internalType": "uint256",
                    "name": "",
                    "type": "uint256"
                },
                {
                    "internalType": "uint256",
                    "name": "",
                    "type": "uint256"
                },
                {
                    "internalType": "uint256",
                    "name": "",
                    "type": "uint256"
                },
                {
                    "internalType": "enum Tracking.ShipmentStatus",
                    "name": "",
                    "type": "uint8"
                },
                {
                    "internalType": "bool",
                    "name": "",
                    "type": "bool"
                }
            ],
            "stateMutability": "view",
            "type": "function"
        },
        {
            "inputs": [
                {
                    "internalType": "address",
                    "name": "_sender",
                    "type": "address"
                }
            ],
            "name": "getShipmentCount",
            "outputs": [
                {
                    "internalType": "uint256",
                    "name": "",
                    "type": "uint256"
                }
            ],
            "stateMutability": "view",
            "type": "function"
        },
        {
            "inputs": [],
            "name": "shipmentCount",
            "outputs": [
                {
                    "internalType": "uint256",
                    "name": "",
                    "type": "uint256"
                }
            ],
            "stateMutability": "view",
            "type": "function"
        },
        {
            "inputs": [
                {
                    "internalType": "address",
                    "name": "",
                    "type": "address"
                },
                {
                    "internalType": "uint256",
                    "name": "",
                    "type": "uint256"
                }
            ],
            "name": "shipments",
            "outputs": [
                {
                    "internalType": "address",
                    "name": "sender",
                    "type": "address"
                },
                {
                    "internalType": "address",
                    "name": "receiver",
                    "type": "address"
                },
                {
                    "internalType": "uint256",
                    "name": "pickupTime",
                    "type": "uint256"
                },
                {
                    "internalType": "uint256",
                    "name": "deliveryTime",
                    "type": "uint256"
                },
                {
                    "internalType": "uint256",
                    "name": "distance",
                    "type": "uint256"
                },
                {
                    "internalType": "uint256",
                    "name": "price",
                    "type": "uint256"
                },
                {
                    "internalType": "enum Tracking.ShipmentStatus",
                    "name": "status",
                    "type": "uint8"
                },
                {
                    "internalType": "bool",
                    "name": "ispaid",
                    "type": "bool"
                }
            ],
            "stateMutability": "view",
            "type": "function"
        }
    ],
    "bytecode": "0x60808060405234601a576000600155610a9190816100208239f35b600080fdfe6080604052600436101561001257600080fd5b60003560e01c806314399d0e146106dc5780635667e02f14610646578063777639af146104b35780638365da5414610419578063a5beca0014610230578063aace20b714610212578063add6415d146100b35763b7dfd93d1461007457600080fd5b346100ae5760203660031901126100ae576001600160a01b036100956107d5565b1660005260006020526020604060002054604051908152f35b600080fd5b346100ae5760003660031901126100ae5760025467ffffffffffffffff81116101fc5760405190601f19603f8260051b0116820182811067ffffffffffffffff8211176101fc5760405280825260208201908160026000527f405787fa12a823e0f2b7631cc41b3ba8828b3321ca811111fa75cd3aa3bb5ace6000915b8383106101de5784866040519182916020830190602084525180915260408301919060005b818110610163575050500390f35b91935091602061010060019260e08751858060a01b038151168352858060a01b0385820151168584015260408101516040840152606081015160608401526080810151608084015260a081015160a08401526101c760c082015160c0850190610876565b0151151560e0820152019401910191849392610155565b600760206001926101ee856109e7565b815201920192019190610130565b634e487b7160e01b600052604160045260246000fd5b346100ae5760003660031901126100ae576020600154604051908152f35b346100ae5761023e366107eb565b909160018060a01b03169081600052600060205261026a61026382604060002061085a565b5091610825565b5060018201546001600160a01b0394851694610288911685146108d5565b6006820191825460ff81166003811015610403576103be5760081c60ff1661038157600260ff198454161783556006820191600260ff19845416178355600342910155600381019242845560008080806005860154809660018060a01b03905416828215610378575bf11561036c57847f3746ccceb54f44c9b0ee0120e596168d07ec9f6ca303cfdd9810d3b2e2686a2e60207f2b6f2473aebafaf8d0889669490135928ec4454d2e29a103fd39693bbca6aef19681968a9561010061ff001982541617905561010061ff001982541617905554604051908152a3604051908152a3005b6040513d6000823e3d90fd5b506108fc6102f1565b60405162461bcd60e51b815260206004820152601560248201527414da1a5c1b595b9d08185b1c9958591e481c185a59605a1b6044820152606490fd5b60405162461bcd60e51b815260206004820152601b60248201527f536869706d656e7420616c726561647920696e205472616e73697400000000006044820152606490fd5b634e487b7160e01b600052602160045260246000fd5b346100ae5760403660031901126100ae576001600160a01b0361043a6107d5565b16600052600060205261045c610456602435604060002061085a565b506109e7565b60018060a01b0381511660018060a01b036020830151169160408101516060820151608083015160a08401519060c08501519260038410156104035760e06104af96015115159460405198899889610883565b0390f35b60803660031901126100ae576104c76107d5565b6024356044356064359081340361060c576104e0610914565b9333855260018060a01b031693846020820152836040820152600060608201528160808201528260a0820152600060c0820152600060e0820152336000526000602052604060002090815491600160401b8310156101fc578261054b9160016105519501815561085a565b90610935565b60015460001981146105f65760010160015561056b610914565b338152846020820152836040820152600060608201528160808201528260a0820152600060c0820152600060e082015260025490600160401b8210156101fc5761054b8260016105be9401600255610825565b604051928352602083015260408201527f5001b34ecf2db5b7bbeddcbbe761ec9ecadcc7638018b98ce3e24995b0e946b660603392a3005b634e487b7160e01b600052601160045260246000fd5b60405162461bcd60e51b8152602060048201526012602482015271496e73756666696369656e742066756e647360701b6044820152606490fd5b346100ae5760403660031901126100ae5761065f6107d5565b6001600160a01b031660009081526020819052604090208054602435908110156100ae5761068c9161085a565b508054600182015460028301546003840154600485015460058601546006909601546040519687966104af9660ff600885901c811697941695929493916001600160a01b03918216911689610883565b346100ae576106ea366107eb565b909160018060a01b03169081600052600060205261070f61026382604060002061085a565b5060018201546001600160a01b039485169461072d911685146108d5565b600682019060ff825416600381101561040357610790577faafab9f94340179ff9cefd29621e1772a4b8efab8023163838f1b0a8f6ce5df5926006600292602094600160ff1982541617905501600160ff198254161790550154604051908152a3005b60405162461bcd60e51b815260206004820152601b60248201527f536869706d656e7420616c726561647920696e207472616e73697400000000006044820152606490fd5b600435906001600160a01b03821682036100ae57565b60609060031901126100ae576004356001600160a01b03811681036100ae57906024356001600160a01b03811681036100ae579060443590565b6002548110156108445760026000526007602060002091020190600090565b634e487b7160e01b600052603260045260246000fd5b8054821015610844576000526007602060002091020190600090565b9060038210156104035752565b9692936108ce9460e097939a9996929a6101008a019b60018060a01b03168a5260018060a01b031660208a015260408901526060880152608087015260a086015260c0850190610876565b1515910152565b156108dc57565b60405162461bcd60e51b815260206004820152601060248201526f24b73b30b634b2102932b1b2b4bb32b960811b6044820152606490fd5b60405190610100820182811067ffffffffffffffff8211176101fc57604052565b906109d157815181546001600160a01b039182166001600160a01b031991821617835560208401516001840180549190931691161790556040820151600282015560608201516003808301919091556080830151600483015560a0830151600583015560c08301516006909201929082101561040357825460e0919091015161ff0090151560081b1660ff9290921661ffff1990911617179055565b634e487b7160e01b600052600060045260246000fd5b9060066109f2610914565b83546001600160a01b039081168252600185015416602082015260028401546040820152600380850154606083015260048501546080830152600585015460a0830152919093015460ff8116918210156104035760ff9160c085015260081c16151560e083015256fea2646970667358221220a98a7dcaeb7407d3696cc26c4ce868df668bfaaad0e4444e1aa4793b96b2b23f64736f6c634300081c0033",
    "linkReferences": {},
    "deployedLinkReferences": {}
}